:020000040800F2
:10000000B80A0020AD1D0008490500084B0500088E
:100010004F050008530500085705000800000000C0
:100020000000000000000000000000005B05000868
:100030005D050008000000005F050008610500087C
:10004000C71D0008C71D0008C71D0008C71D000800
:10005000C71D0008C71D0008C71D0008C71D0008F0
:10006000C71D0008C71D0008C71D0008C71D0008E0
:10007000C71D0008C71D0008C71D0008C71D0008D0
:10008000C71D0008C71D0008C71D0008C71D0008C0
:10009000C71D0008C71D0008C71D0008C71D0008B0
:1000A000C71D0008C71D0008C71D0008C71D0008A0
:1000B000C71D0008C71D0008C71D0008C71D000890
:1000C000C71D0008C71D0008C71D0008C71D000880
:1000D000C71D0008C71D00088D19000891160008EB
:1000E000C71D0008C71D0008C71D0008DFF80CD099
:1000F00002F0C6FF0048004725030008B80A0020A8
:10010000014605E0FE4A00E0521E002AFCD1491ECD
:100110000029F7D1704710B5044601F041FD882051
:1001200001F0E2FD01F077FDC4F3072001F0DCFDF2
:1001300001F071FDE0B201F0D7FD01F06CFD01F0BE
:100140004DFD10BD10B542F23620FFF7E4FF10BDA3
:1001500010B5044601F024FD882001F0C5FD01F032
:100160005AFDF32001F0C0FD01F055FD2D2001F0F6
:10017000BBFD01F050FD01F013FD892001F0B4FD3D
:1001800001F049FD012001F0D9FD2070012001F0AE
:10019000D5FD6070002001F0D1FDA07001F01EFDC2
:1001A00010BD70B505460C4601F0FAFC882001F040
:1001B0009BFD01F030FDC5F3072001F095FD01F036
:1001C0002AFDE8B201F090FD01F025FD01F0E8FC08
:1001D000892001F089FD01F01EFD012001F0AEFD36
:1001E0002070012001F0AAFD6070012001F0A6FD41
:1001F000A070012001F0A2FDE070012001F09EFD41
:100200002071002001F09AFD607101F0E7FC70BDE3
:1002100030B502460B46FF20002113E0555C6840D4
:1002200008240BE010F0800F04D0312585EA40054A
:10023000E8B201E04506280E651EECB2002CF1DCA8
:100240004D1CE9B29942E9DB30BDF0B505460E46DA
:10025000144631462846FFF7DBFF0746A74201D088
:100260000120F0BD0020FCE72DE9F04704462046C0
:1002700002F0A9FC8146A34902F02FFC8046A24966
:1002800002F061FC0746A14902F021FC064602F09B
:100290009FFC05462846BDE8F0872DE9F04104465D
:1002A000204602F090FC8046994902F016FC074671
:1002B000954902F048FC064602F08AFCC5B2284681
:1002C000BDE8F08110B501F054FC6420FFF718FF81
:1002D000FFF738FF6420FFF713FF10BD08B50121B9
:1002E000082002F0F9F80220ADF8000010208DF887
:1002F000030003208DF802006946864801F036FEAF
:1003000008BD10B50221834801F0CEFE044624B199
:100310000221804801F0D7FE03E002217D4801F070
:10032000D0FE10BDBAB040212AA802F05AFB002529
:1003300000BF80210AA802F054FB0020069007901D
:10034000814682468346049000BF00BF724B0FCBAC
:100350008DE80F0000F0EAFCFFF7C0FF01F093FA10
:1003600000F0CAFD00F054FC00F0E9FAFFF7AAFF24
:1003700010236AA20021084600F0BBFB10236BA2E9
:100380000421002000F0B5FB01F0CEF86420FFF757
:10039000B7FED8E006A94FF46040FFF702FF9DF8D2
:1003A00018008DF814009DF819008DF815009DF8BF
:1003B0001A008DF816009DF81620022105A8FFF7F7
:1003C00044FF8146B9F1000F0CD19DF815009DF84E
:1003D000141000EB01263046FFF746FF074602F0F7
:1003E000F2FB83469DF81B008DF814009DF81C005D
:1003F0008DF815009DF81D008DF816009DF816204B
:10040000022105A8FFF721FF8246BAF1000F0CD1A7
:100410009DF815009DF8141000EB01263046FFF7FB
:100420003CFF074602F0CFFB0490584602F0E4FB85
:1004300007463A460B463FA108A802F001FF08A86C
:1004400001F099FA049802F0D7FB07463A460B46AA
:1004500038A109A802F0F4FE09A801F08CFA0124E1
:1004600003E06420FFF74CFE641C0A2CF9D39DF8CE
:1004700020008DF80A009DF821008DF80B009DF8F2
:1004800021008DF80C008DF80D009DF800009DF8FE
:10049000011008449DF8021008449DF80310084418
:1004A0009DF8041008449DF8051008449DF80610B6
:1004B00008449DF8071008449DF8081008449DF86A
:1004C000091008449DF80A1008449DF80B100844D0
:1004D0009DF80C1008449DF80D100844C0B28DF82A
:1004E0000E009DF8012069462AA801F0B5F8C5B2B2
:1004F00005232A462AA9002000F0B7FF1EE00000CD
:10050000FFFF010000002F4300FF7F47000034423F
:100510000000C842000C0140343B0008576966697E
:1005200020436C69656E74210000000053687433C9
:1005300078000000252E306600000000FFF7E1FE85
:100540003220FFF7DDFD25E7704700BFFEE700BF63
:10055000FEE700BFFEE700BFFEE770477047704749
:10056000704700000CB50020019000906B480068B7
:1005700040F480306949086000BF6848006800F4B2
:10058000003000900198401C0190009818B9019823
:10059000B0F5A06FF1D16148006810F4003F02D0BF
:1005A0000120009001E0002000900098012842D135
:1005B0005B48006840F01000594908600846006830
:1005C00020F0030008600846006840F00200086060
:1005D00052484068514948600846406848600846AB
:1005E000406840F4806048600846406820F47C1011
:1005F00048600846406840F4E810486008460068D3
:1006000040F08070086000BF4448006810F0007F30
:10061000FAD04248406820F003004049486008464C
:10062000406840F00200486000BF3C48406800F06D
:100630000C000828F9D10CBD10B5FFF793FF10BDD1
:1006400010B53648006840F001003449086008469B
:1006500040683449084031494860084600683249DA
:1006600008402E4908600846006820F48020086091
:100670000846406820F4FE0048604FF41F00886080
:10068000FFF7DAFF4FF000602849086010BD10B591
:10069000002100200022214B5B6803F00C0121B1F6
:1006A000042906D0082928D107E0214B214C2360DA
:1006B00027E01F4B1F4C236023E0184B5B6803F4BB
:1006C0007010164B5B6803F48032022303EB9040FA
:1006D00022B9194B4343174C23600DE00F4B5B6865
:1006E00013F4003F04D0144B4343124C236003E047
:1006F0000F4B43430F4C236003E00D4B0D4C236025
:1007000000BF00BF054B5B68C3F303130B4CE15CF8
:10071000084B1B68CB40074C236010BD0010024003
:10072000002002400000FFF8FFFFF6FE08ED00E0A9
:1007300000127A000000002000093D0004000020A3
:1007400010B54FF48071F94801F0BBFC4FF4007113
:10075000F64801F0B6FC4FF40071F44801F0B3FC28
:100760004FF48071F14801F0AEFC10BD10B54FF4AC
:100770008071EE4801F0A5FC4FF40071EB4801F0E8
:10078000A2FC4FF40071E94801F09BFC10BD10B5CC
:100790004FF48071E54801F094FC4FF48071E34818
:1007A00001F091FC10BD2DE9F04105462C464FF4B7
:1007B0008071DE4801F087FC00261CE0274607F028
:1007C0008007802F04D1B900D84801F07AFC04E0FA
:1007D0004FF40071D54801F076FC6006040E4FF42A
:1007E0008071D24801F06DFC4FF48071CF4801F068
:1007F0006AFC701CC6B2082EE0DBBDE8F08110B5C3
:100800000446FFF79DFF7820FFF7CDFFFFF7BFFFFE
:100810000020FFF7C8FFFFF7BAFF2046FFF7C3FF2E
:10082000FFF7B5FFFFF7A2FF10BD10B50446FFF7B5
:1008300087FF7820FFF7B7FFFFF7A9FF4020FFF7FA
:10084000B2FFFFF7A4FF2046FFF7ADFFFFF79FFFC2
:10085000FFF78CFF10BD70B504460D461DB1E0B228
:10086000FFF7E3FF02E0E0B2FFF7C9FF70BD70B52C
:100870000646002418E004F1B0000021FFF7EBFF6A
:1008800000210846FFF7E7FF00211020FFF7E3FFF4
:10089000002505E001213046FFF7DDFF681CC5B2E9
:1008A000802DF7DB601CC4B2082CE4DB70BD06E0D1
:1008B00041F6650100E0491E0029FCD1401E0028D8
:1008C000F6D17047014605E0002001E0421CD0B29D
:1008D0007B28FBDB0A00A1F10101F5D1704770B55F
:1008E00004460D4605F1B0000021FFF7B4FF1021CA
:1008F00041EA14100021FFF7AEFF04F00F000021C1
:10090000FFF7A9FF70BD10B500218D20FFF7A3FFF1
:1009100000211420FFF79FFF0021AF20FFF79BFF6E
:1009200010BD10B500218D20FFF795FF002110208C
:10093000FFF791FF0021AE20FFF78DFF10BD70B5CE
:10094000002418E004F1B0000021FFF784FF00212B
:100950000846FFF780FF00211020FFF77CFF0025ED
:1009600005E001210020FFF776FF681CC5B2802D4D
:10097000F7DB601CC4B2082CE4DB70BD70B500244A
:1009800018E004F1B0000021FFF765FF00210846E0
:10099000FFF761FF00211020FFF75DFF002505E054
:1009A00001210846FFF757FF681CC5B2802DF7DB11
:1009B000601CC4B2082CE4DB70BD2DE9F04707468B
:1009C0000E469046994600250024A8F12000C5B2A5
:1009D0007F2F02DD0027B01CC6B2B9F1100F24D161
:1009E00031463846FFF77BFF002408E004EB051191
:1009F0004F4A505C0121FFF72EFF601CC4B2082C47
:100A0000F4DB701CC1B23846FFF769FF002409E02F
:100A100004EB05110831464A505C0121FFF71BFF2A
:100A2000601CC4B2082CF3DB12E031463846FFF7F5
:100A300056FF00240AE005EB45013E4A02EB410166
:100A4000085D0121FFF707FF601CC4B2062CF2DB32
:100A5000BDE8F08710B50246012000E050430B00CE
:100A6000A1F10104E1B2F9D110BD2DE9FF5F074604
:100A700091461E460E9D4FF0000A002435E0301BC3
:100A8000401EC1B20A20FFF7E5FFB9FBF0F00A21D2
:100A9000B0FBF1F201FB1208BAF1000F14D1701E85
:100AA000A04211DDB8F1000F0CD1AB4605EBDB71B4
:100AB000491001FB0471C8B22B4620220199FFF7AF
:100AC0007CFF10E04FF0010AAB4605EBDB714910EB
:100AD00001FB0471C8B208F13001CAB22B4601997A
:100AE000FFF76BFF00BF601CC4B2B442C7DBBDE8B8
:100AF000FF9F2DE9F04104460F4615469846002613
:100B00000FE0AA5D434639462046FFF756FF04F141
:100B10000800C4B2782C02DD0024B81CC7B2701CD7
:100B2000C6B2A85D0028ECD1BDE8F081000C014000
:100B30006C3D0008443B00082DE9F04180460E461C
:100B40001546002731464046FFF7C9FE00240AE05B
:100B5000744A02EB8511085D0121FFF77CFE781CC9
:100B6000C7B2601CC4B2102CF2DB701CC1B240468C
:100B7000FFF7B5FE00240CE06900491C694A02EB4E
:100B80004111085D0121FFF766FE781CC7B2601CA9
:100B9000C4B2102CF0DBBDE8F0812DE9F05F064611
:100BA0000F4690461C46DDF828A04FF0000BE117D9
:100BB00004EB5171C910B4EBC10106D12046E11715
:100BC00004EB5171C1F3C70506E02046E11704EBC1
:100BD0005171C910491CCDB23D4615E02946304639
:100BE000FFF77DFEB1460BE059460BF1010B1AF8F9
:100BF00001000121FFF72FFE09F1010000F0FF09BC
:100C0000C145F1DB681CC5B2A542E7DBBDE8F09F3A
:100C100008B50121082001F05FFC4FF44070ADF8E9
:100C2000000010208DF8030003208DF802006946B3
:100C30003D4801F09BF94FF440713B4801F041FA07
:100C40004FF4FA7000F0AEF80021AE20FFF703FE7B
:100C500000210846FFF7FFFD00211020FFF7FBFDF4
:100C600000214020FFF7F7FD0021B020FFF7F3FD42
:100C700000218120FFF7EFFD0021FF20FFF7EBFDB2
:100C80000021A120FFF7E7FD0021A620FFF7E3FDEB
:100C90000021A820FFF7DFFD00213F20FFF7DBFD4B
:100CA0000021C820FFF7D7FD0021D320FFF7D3FD97
:100CB00000210846FFF7CFFD0021D520FFF7CBFD2F
:100CC00000218020FFF7C7FD0021D820FFF7C3FDDA
:100CD00000210520FFF7BFFD0021D920FFF7BBFD54
:100CE0000021F120FFF7B7FD0021DA20FFF7B3FD67
:100CF00000211220FFF7AFFD0021DB20FFF7ABFD45
:100D000000213020FFF7A7FD00218D20FFF7A3FD74
:100D100000211420FFF79FFD0021AF20FFF79BFD6E
:100D200008BD000014000020000C014010B56FF059
:100D3000040001F09DF82D4800682D49B0FBF1F04A
:100D40002C4908700846007800EB4001C1EBC01048
:100D50004FF6FF7101EAC0002749088010BD014627
:100D6000244A12784A434FF0E0235A6100229A61E4
:100D70001A46126942F001021A6100BF4FF0E022E8
:100D8000106910F0010F02D010F4803FF6D04FF040
:100D9000E022126922F001024FF0E0231A610022E2
:100DA0009A6170470146144A12884A434FF0E02383
:100DB0005A6100229A611A46126942F001021A61D0
:100DC00000BF4FF0E022106910F0010F02D010F4C4
:100DD000803FF6D04FF0E022126922F001024FF07E
:100DE000E0231A6100229A61704700000000002091
:100DF00000127A00940100209601002008B54FF4FB
:100E0000A06000F0E5FF27208DF8000000208DF89D
:100E100001008DF8020001208DF80300684600F003
:100E2000DCFF08BD00B585B00121880401F061FB3D
:100E30000121082001F050FB4FF48060ADF8100054
:100E400018208DF8130003208DF8120004A9FA4829
:100E500001F08CF84FF40060ADF8100004208DF81C
:100E6000130004A9F44801F081F84FF4E130009038
:100E70000020ADF80400ADF80600ADF80800ADF8AC
:100E80000C000C20ADF80A006946EC4801F0CFFBDD
:100E9000012240F22551E94801F061FC012240F2B3
:100EA0002441E64801F05BFCFFF7A8FF0121E3487D
:100EB00001F049FC05B000BD08B50121082001F092
:100EC0000BFB4FF48070ADF8000010208DF803008C
:100ED00003208DF802006946D74801F047F8012148
:100EE000082001F0F9FA4FF40070ADF800006946EF
:100EF000D14801F03BF808BD10B5FFF7DDFFFFF763
:100F000091FF4FF40071CC4801F0DBF84FF4807191
:100F1000C94801F0D8F810BD2DE9F04106460C464D
:100F200015461F46C648B0F80004C10BC903C448A3
:100F3000A0F800143246C3A1C04800F092FD1CB9CD
:100F400015B90120BDE8F081B8B2FFF72BFF0021F1
:100F5000BB48B0F80004C0F30E00B94A1154114662
:100F6000BAA002F05DF9B4B1ADB12146B44801F0C8
:100F700043FD08B1012000E0002040B92946B048F7
:100F800001F03AFD08B1012000E0002008B1012085
:100F9000D8E70020D6E744B12146A94801F02CFD4E
:100FA00008B10120CEE70020CCE72946A44801F093
:100FB00023FD08B10120C5E70020C3E710B540F6C6
:100FC000C413A3A2A4A1A5A0FFF7A6FF10BD10B54E
:100FD00000244FF47A70FFF7E5FE0CE04FF47A73CB
:100FE00000229DA19FA0FFF797FF00B110BDFFF762
:100FF000E5FF601CC4B2032CF0DB00BFF6E710B5C0
:10100000044624B1012C0AD0022C18D10FE040F67E
:10101000C41395A290A197A0FFF77EFF10BD40F6E4
:10102000C41391A28CA196A0FFF776FFF6E740F6D5
:10103000C4138DA288A195A0FFF76EFFEEE70020F4
:10104000ECE730B59FB004460D462B46224692A1F0
:1010500001A802F0F5F841F2883300227EA101A830
:10106000FFF75AFF1FB030BD70B5A0B004460D4663
:1010700016462B4622468DA102A8009602F0E0F803
:101080004FF47A73002274A102A8FFF745FF20B045
:1010900070BD10B586B004460CB1012000E0002000
:1010A000024688A101A802F0CBF84FF4FA7300229F
:1010B00069A101A8FFF730FF06B010BDF0B5B9B0C7
:1010C00006460F4614461D46642120A801F089FCFF
:1010D00016B1012E10D107E03B467EA27EA120A8CA
:1010E000009402F0ADF808E03B467FA27AA120A868
:1010F000009402F0A5F800E000BF00BF052D06DA5D
:1011000020AB2A4679A102A802F09AF804E020AAAE
:101110007BA102A802F094F84FF47A637CA24EA15E
:1011200002A8FFF7F9FE39B0F0BD70B5BCB00446B7
:101130000D461646FCB12B46012279A11EA802F0ED
:101140007FF832467BA1684602F07AF84FF4FA73D2
:10115000002241A11EA8FFF7DFFE50B14FF4FA7341
:1011600000223DA16846FFF7D7FE10B101203CB038
:1011700070BD0020FBE72B46002269A11EA802F0EB
:101180005FF84FF4FA73002233A11EA8FFF7C4FEE4
:10119000EDE710B54FF4FA7300222FA169A0FFF715
:1011A000BBFEA0B16BA1264801F026FC08B10220CD
:1011B00010BD6BA1224801F01FFC08B10320F7E726
:1011C0006AA11F4801F018FC08B10420F0E70020D4
:1011D000EEE710B500244FF4FA7300221EA159A0C7
:1011E000FFF79AFE002826D063A1154801F004FC01
:1011F00010B144F0010401E024F0010462A11048A0
:1012000001F0FAFB10B144F0020401E024F0020402
:1012100061A10B4801F0F0FB10B144F0040401E0BF
:1012200024F0040460A1064801F0E6FB10B144F08C
:101230000804C3E0C0E0CBE0000C014000480040DF
:10124000B401002025730D0A000000002573000082
:1012500072656164790000004F4B000041542B52CD
:1012600053540000415400006E6F206368616E6744
:101270006500000041542B43574D4F44453D31001C
:1012800041542B43574D4F44453D320041542B436D
:10129000574D4F44453D330041542B43574A41502D
:1012A0003D222573222C22257322000041542B431A
:1012B000575341503D222573222C222573222C3571
:1012C0002C25640041542B4349504D55583D25640D
:1012D0000000000054435000222573222C22257365
:1012E000222C2573000000005544500041542B432C
:1012F000495053544152543D25642C25730000003D
:1013000041542B43495053544152543D25730000DE
:10131000414C5245415920434F4E4E4543540000E5
:1013200041542B4349505345525645523D25642C58
:101330002573000041542B43495053544F3D2573AE
:101340000000000041542B4349505354415455531D
:10135000000000005354415455533A320D0A000026
:101360005354415455533A330D0A000053544154D9
:1013700055533A340D0A00002B43495053544154FD
:1013800055533A302C0000002B43495053544154DC
:1013900055533A312C0000002B43495053544154CB
:1013A00055533A322C0000002B43495053544154BA
:1013B00055533A332C00000024F00804D6A1DA4833
:1013C00001F01AFB10B144F0100401E024F0100405
:1013D000204610BD2DE9F04105460F464FF4FA7343
:1013E0000022AFF28C11D1A0FFF796FDD2A1CE481A
:1013F00001F002FB06460EB1B61D02E00020BDE87A
:10140000F081002409E0305D2855285D222802D1B2
:101410000020285503E0601CC4B2BC42F3DB00BFCF
:101420000120ECE710B54FF4FA730022AFF2D811A7
:10143000C3A0FFF771FD08B9002010BD4FF4FA7387
:10144000C3A2AFF2EC11C3A0FFF766FDF5E710B53C
:101450004FF47A70FFF7A6FCC1A1C24800F001FB6F
:101460004FF4FA70FFF79EFC10BD2DE9F04186B0F5
:1014700007460C4615461E464FF0000847B1224667
:10148000AFF23821B74800F0ECFA4FF001081CE049
:10149000052E06DAAB1C3246B3A101A801F0D0FE3E
:1014A00004E0AA1CB5A101A801F0CAFE4FF47A73AA
:1014B0000022B6A101A8FFF72FFD4FF47A73002296
:1014C000B3A12046FFF728FD8046404606B0BDE8A0
:1014D000F08170B5044600259348B0F80004C10BB4
:1014E000C9039148A0F80014B0F8000420F40041AA
:1014F0008D48A0F8001400BF8B48B0F80004C00B62
:10150000FAD000218848B0F80004C0F30E00864AE3
:1015100011540CB1154605E09FA1834801F06CFA07
:1015200000B1814D284670BD10B588B00124224617
:101530009BA1684601F03CFA00200DF8040099A038
:1015400001F06EFEFFF743FD0020FFF758FD00BFDE
:101550009BA16846FFF775FD0028F9D000BF052361
:101560009AA29CA10020FFF7A9FD0028F7D09DA01A
:1015700001F056FE08B010BD10B588B00124224617
:1015800087A1684601F014FA00200DF804009EA01F
:1015900001F046FEFFF71BFD0120FFF730FD0120A3
:1015A000FFF777FD00BF032285A16846FFF75CFDCA
:1015B0000028F8D000BF9DA284A10120FFF7B5FD4F
:1015C0000028F8D04FF4FA730022AFF2743157A01C
:1015D000FFF7A2FC97A001F023FE08B010BD2DE993
:1015E000F04780460FF270290027A0A14E4801F075
:1015F00003FA07467F1C384601F010FA82460024A1
:1016000024E0002507E0385D19F80510884200D174
:1016100003E0681CC5B2102DF5DB00BF002608E012
:10162000601C385C19F80610884200D103E0701C79
:10163000C6B2102EF4DB00BF06EB0511204604EB0A
:10164000D072521008F80210A01CC4B25445D8D36E
:10165000CAF34F00BDE8F08770B503460C467EA57F
:1016600000210EE0605C05EB2010007803F811000B
:10167000605C00F00F002E5C4800401C1E54481CAB
:10168000C1B29142EEDB4FF6FF7000EA420070BD3E
:1016900010B540F22551334801F046F900B3314806
:1016A00001F0C2F8C4B22048B0F80004C0F30E0044
:1016B00040F2FF3188420EDA1B49B1F80014C1F341
:1016C0000E00411C184AB2F8002461F30E021649BC
:1016D000A1F800240C5440F22551224801F04EF9A3
:1016E00040F224411F4801F01FF9012813D11D4881
:1016F00000881C48001D00880B48B0F8000420F446
:10170000004000F500400849A1F8000440F22441DF
:10171000144801F033F910BD2B4349505354415440
:1017200055533A342C000000B401002041542B439F
:101730004946535200000000415049502C220000FD
:1017400041542B4349504D4F44453D31000000006A
:101750003E00000041542B43495053454E44000085
:101760002B2B2B000048004041542B43495053453C
:101770004E443D25642C25640000000041542B4359
:10178000495053454E443D25640000003E20000072
:1017900053454E44204F4B002B495044000000005D
:1017A0007A0000000D0A53657474696E6720455312
:1017B000503832363620436C69656E740D0A00006D
:1017C00031323334353637380000000038303831A4
:1017D000000000003139322E3136382E3133372EA9
:1017E000310000000D0A53657420455350383236DD
:1017F0003620436C69656E7420636F6D706C657420
:1018000065640D0A000000000D0A53657474696E6A
:1018100067204553503832363620536572766572EC
:101820002E2E2E2E2E2E0D0A0000000035303030C8
:10183000000000000D0A53657420455350383236BD
:10184000362053657276657220636F6D706C6574B7
:1018500065640D0A0000000030313233343536370C
:101860003839414243444546000000003A00000038
:1018700000BF5E4A128812F0400FFAD0C2B25B4B32
:101880001B1D1A80704700B587B00121480400F085
:1018900030FE0121052000F01FFE0420ADF81800E5
:1018A00018208DF81B0003208DF81A0006A9504857
:1018B00000F05CFB0820ADF8180004208DF81B0038
:1018C00006A94B4800F052FB26208DF804000320A7
:1018D0008DF8050001208DF806008DF8070001A89D
:1018E00000F07BFA4FF4E13002900020ADF80C00DC
:1018F000ADF80E00ADF81000ADF814000C20ADF8F6
:10190000120002A9394800F092FE012240F225514E
:10191000364800F024FF012240F22441334800F011
:101920001EFF0121314800F00EFF07B000BD10B5C9
:10193000044621462D4800F073FF00BF80212B484C
:1019400000F0DCFF0028F9D010BD70B505460E464A
:10195000002403E0285DFFF7EAFF641CB442F9DBD2
:1019600070BD2249091D088000BF2049098811F077
:10197000800FFAD0704700B5024603E012F8010B61
:10198000FFF7EFFF10780028F8D100BD10B540F246
:101990002551164800F0C8FFA0B1144800F044FFDC
:1019A000C4B214480078FF2807DC12480178007898
:1019B000401C104A10701048445440F225510B4806
:1019C00000F0DCFF40F22441084800F0ADFF60B1B8
:1019D000064800880548001D008801200749087056
:1019E00040F22441014800F0C9FF10BD004400400E
:1019F0000008014098010020B60500209901002050
:101A0000F0B503460D461646002729460A2E03D098
:101A1000002008702846F0BD33B9302001F8010BD2
:101A2000002008702846F6E7002B03DA2D2001F885
:101A3000010B5B4242F210720DE093FBF2F404B929
:101A400037B104F1300001F8010B04FB1233012718
:101A50000A2092FBF0F2002AEFDC002008702846F2
:101A6000D9E70FB470B586B006460CA8019073E0B4
:101A70000B9800785C281CD10B98401C0B900078C8
:101A80006E2809D072280FD10D21304600F0C8FE13
:101A90000B98401C0B900BE00A21304600F0C0FE72
:101AA0000B98401C0B9003E00B98401C0B9000BF60
:101AB0004BE00B980078252840D10B98401C0B90E8
:101AC0000078642818D0732833D1019810C8019089
:101AD0000BE02178304600F0A3FE00BF80213046A5
:101AE00000F00CFF0028F9D0641C20780028F0D109
:101AF0000B98401C0B9020E0019820C801900A220E
:101B000002A92846FFF77CFF02AC0BE021783046A3
:101B100000F086FE00BF8021304600F0EFFE002876
:101B2000F9D0641C20780028F0D10B98401C0B9051
:101B300003E00B98401C0B9000BF06E00B9810F8D8
:101B4000011B0B90304600F06BFE00BF8021304639
:101B500000F0D4FE0028F9D00B980078002887D137
:101B600006B070BC5DF814FB10B50220FFF7F7F863
:101B700010BD08B50121082000F0AEFCC020ADF872
:101B8000000010208DF8030003208DF80200694644
:101B9000814800F0EBF9C0217F4800F092FA08BDBF
:101BA00010B57D48006820F070407B490860084609
:101BB000006840F04050086001207849086078498A
:101BC000C1F89801FFF7D0FF002074490860FFF7C3
:101BD000CBFF00207249C1F8980110BD10B56E48C6
:101BE000006820F070406C4908600846006840F0CA
:101BF0004050086000206B4908606949C1F89C01A9
:101C0000FFF7B2FF0120674908606549C1F89C01F0
:101C1000FFF7AAFF10BD10B500245F48006820F050
:101C200070405D4908600846006840F00040086068
:101C300001205A490860FFF797FF01205849C1F871
:101C40009801FFF791FF07E0601CC4B2FA2C03DD96
:101C5000FFF7C4FF012010BD534800680028F3D1EE
:101C60005049086000BFF6E710B500204D490860F4
:101C70004948006820F070404749086008460068FD
:101C800040F0405008604FF000004549C1F89C0109
:101C9000FFF76AFF012043490860FFF765FF002056
:101CA0003F49C1F8980110BD10B500203D490860BA
:101CB0003948006820F070403749086008460068DD
:101CC00040F0405008604FF001003549C1F89C01D8
:101CD000FFF74AFF012033490860FFF745FF002066
:101CE0002F49C1F8980110BD70B504462A48006814
:101CF00020F07040284908600846006840F04050D5
:101D00000860002027490860054614E0E0092349DF
:101D100008604FEA44604FEA10644FF00100204928
:101D2000C1F89801FFF720FF00201E490860FFF767
:101D30001BFF681CC5B2082DE8DB70BD70B50546F9
:101D400000241548006820F07040134908600846D8
:101D5000006840F000400860002613E000201149B0
:101D60000860FFF701FF01200D49C1F898016006E6
:101D7000040E0D48006808B1601CC4B2FFF7F4FE01
:101D8000701CC6B2082EE9DB15B9FFF78DFF01E024
:101D9000FFF76AFF204670BD000C01409C81214284
:101DA00000802142988121421C81214206488047BF
:101DB00006480047FEE7FEE7FEE7FEE7FEE7FEE730
:101DC000FEE7FEE7FEE7FEE741060008ED0000083B
:101DD00031490143314A1160704770B50021002339
:101DE0000F22C4780CB32D4C246804F4E064C4F5CD
:101DF000E064210AC1F10403CA40447804FA03F103
:101E00008478144021430901254C0678A1550478B3
:101E100004F01F050124AC4005786D114FF0E02659
:101E200006EB8505C5F8004109E0047804F01F05BC
:101E30000124AC401B4D0678761145F8264070BD54
:101E4000194A0A400243154B1B1F1A60704739B1EB
:101E5000124A121D12680243104B1B1D1A6006E045
:101E60000E4A121D126882430C4B1B1D1A607047EC
:101E7000042808D14FF0E021096941F004014FF036
:101E8000E022116107E04FF0E021096921F004012F
:101E90004FF0E022116170470000FA050CED00E000
:101EA00000E400E080E100E080FFFF1F10B5044681
:101EB000CA48844208D10121042000F027FB0021F8
:101EC000042000F023FB46E0C548844208D10121EC
:101ED000082000F01BFB0021082000F017FB3AE06F
:101EE000C048844208D10121102000F00FFB0021DE
:101EF000102000F00BFB2EE0BB48844208D10121EA
:101F0000202000F003FB0021202000F0FFFA22E057
:101F1000B648844208D10121402000F0F7FA0021A0
:101F2000402000F0F3FA16E0B148844208D10121C4
:101F3000802000F0EBFA0021802000F0E7FA0AE0B0
:101F4000AC48844207D10121801500F0DFFA00215E
:101F5000A01500F0DBFA10BD10B50121084600F015
:101F6000D5FA0021012000F0D1FA10BD2DE9F04191
:101F7000024600250026002000230024002791F8B7
:101F800003C00CF00F0591F803C01CF0100F03D034
:101F900091F802C04CEA050591F800C0BCF1000FB1
:101FA00031D0146800202BE04FF0010C0CFA00F344
:101FB000B1F800C00CEA03069E4220D183004FF026
:101FC0000F0C0CFA03F7BC4305FA03FC4CEA0404BB
:101FD00091F803C0BCF1280F06D14FF0010C0CFAA8
:101FE00000FCC2F814C00AE091F803C0BCF1480F2D
:101FF00005D14FF0010C0CFA00FCC2F810C0401CD7
:102000000828D1D31460B1F800C0BCF1FF0F34DD53
:10201000546800202EE000F1080C4FF0010808FA87
:102020000CF3B1F800C00CEA03069E4221D18300F4
:102030004FF00F0C0CFA03F7BC4305FA03FC4CEA13
:10204000040491F803C0BCF1280F05D100F1080C7D
:1020500008FA0CF8C2F8148091F803C0BCF1480FDC
:1020600007D100F1080C4FF0010808FA0CF8C2F88B
:102070001080401C0828CED35460BDE8F0814FF694
:10208000FF710180022181700421C17070470246F6
:10209000002093680B4201D0012000E0002070472F
:1020A0000146886880B2704702460020D3680B4220
:1020B00001D0012000E0002070470146C86880B2CE
:1020C000704701617047416170470AB1016100E0EA
:1020D00041617047C16070474FF480320A438261AA
:1020E0008161826182698269704702460020424BA9
:1020F00018684FF68073184040EA021008433E4BC0
:10210000186070473D49C8617047F0B50A46002322
:1021100000240021002500F00046B6F1004F02D156
:10212000354EF16901E0344E7168C0F3034583B266
:1021300000F44016B6F5401F08D121F070612E4E14
:10214000766826F070662C4F7E6012E000F48016F0
:10215000B6F5801F06D1032606FA05F4A14341F027
:10216000706106E0460D360103FA06F6B14341F010
:10217000706122B1460D360103FA06F6314300F0D4
:102180000046B6F1004F02D11B4EF16101E01A4E3C
:102190007160F0BD30B500228B071C0F0F2303FACE
:1021A00004F2154B08338C1053F824309343124C2F
:1021B00008348D1044F8253023468C1053F8243011
:1021C0008C07240F00FA04F423430B4C08348D10C1
:1021D00044F8253030BD0A490860704700080140C6
:1021E000000C0140001001400014014000180140A3
:1021F000001C01400020014000000140000020427E
:10220000DC002042DD48006840F00100DB49086046
:1022100008464068DA490840D849486008460068DE
:10222000D8490840D54908600846006820F4802055
:1022300008600846406820F4FE0048604FF41F0024
:1022400088607047CD49096821F48031CB4A11601C
:102250001146096821F480211160B0F5803F03D058
:10226000B0F5802F0ED106E0C449096841F48031F1
:10227000C24A116007E0C149096841F4A021BF4A80
:10228000116000E000BF00BF704710B5014600229A
:10229000002300204A11012A02D1B84C236806E02D
:1022A000022A02D1B54C236A01E0B44C636A01F002
:1022B0001F02012494401C4201D0012000E00020B4
:1022C00010BD38B5002000900024002500BF31204B
:1022D000FFF7DBFF05460098401C00900098B0F522
:1022E000A06F01D0002DF2D03120FFF7CEFF08B152
:1022F000012400E00024204638BD014600209F4A0A
:10230000106820F0F80040EAC100106070479E4954
:102310000860704702460020984B586820F47C10F3
:1023200042EA01031843954B586070479649086686
:10233000704701460020914A506820F0030008438E
:10234000506070478D48406800F00C0070470146AF
:1023500000208A4A506820F0F0000843506070471F
:1023600001460020854A506820F4E0600843506030
:10237000704701460020814A506820F4605040EACE
:10238000C1005060704729B17C4A527A02437B4BAE
:102390005A7204E0794A527A8243784B5A727047F3
:1023A0007A490860704701460020744A506820F45A
:1023B00040400843506070470021754A11706F4AD1
:1023C00082F82010012802D0042808D103E001215E
:1023D0006F4A117004E005216D4A117000E000BFE2
:1023E00000BF70476B49086070476449096A014340
:1023F000624A11627047674944390860704730B5D6
:1024000000210022002400235C4D6D6805F00C01C2
:1024100021B1042905D0082923D105E05E4D0560CE
:1024200022E05D4D05601FE0544D6D6805F47012AB
:10243000524D6D6805F48034022505EB92421CB9BB
:10244000564D554305600BE04C4D6D6815F4003F4B
:1024500003D0524D5543056002E04F4D5543056092
:1024600002E04D4D056000BF00BF444D6D6805F0B2
:10247000F00109094A4D6B5C0568DD4045603F4D40
:102480006D6805F4E061090A454D6B5C4568DD4007
:1024900085603A4D6D6805F46051C90A404D6B5C2A
:1024A0004568DD40C560354D6D6805F44041890BD8
:1024B0003C4D6B5CC568B5FBF3F5056130BD29B1DA
:1024C0002E4A526902432D4B5A6104E02B4A52694D
:1024D00082432A4B5A61704729B1284A92690243C4
:1024E000264B9A6104E0254A92698243234B9A6104
:1024F000704729B1214AD2690243204BDA6104E0D6
:102500001E4AD26982431D4BDA61704729B11B4ACA
:10251000D2680243194BDA6004E0184AD268824359
:10252000164BDA60704729B1144A12690243134B03
:102530001A6104E0114A12698243104B1A61704714
:1025400014494039086070470F49C86470470B4907
:10255000C87170470948406A40F080700749486276
:10256000704701460020054A92680A4201D00120C6
:1025700000E0002070470149887270470010024057
:102580000000FFF8FFFFF6FE00004242D800424282
:10259000201002408004424200127A0000093D00EF
:1025A0009A010020AA01002010B50446FB4884428D
:1025B00009D101218803FFF7A9FF00214FF48040D2
:1025C000FFF7A4FF32E0F648844209D10121480414
:1025D000FFF7A9FF00214FF40030FFF7A4FF25E02B
:1025E000F048844209D101218804FFF79CFF0021B3
:1025F0004FF48020FFF797FF18E0EB48844209D1A1
:102600000121C804FFF78FFF00214FF40020FFF7DE
:102610008AFF0BE0E548844208D101210805FFF755
:1026200082FF00214FF48010FFF77DFF10BD2DE9E0
:10263000F04786B005460E460024A24600BFA146DC
:102640000027B08900B100BF2F462C8A4CF6FF70DE
:102650000440F08804432C82AC894EF6F310044009
:10266000B08831890843718908430443AC81AC8A3E
:102670004FF6FF400440B0890443AC8201A8FFF745
:10268000BEFEC648874202D1DDF810A001E0DDF8A9
:102690000CA0A88910F4004F08D00AEBCA0000EB88
:1026A0000A1031684900B0FBF1F807E00AEBCA00F4
:1026B00000EB0A1031688900B0FBF1F86420B8FB28
:1026C000F0F004012009642101FB1089A88910F4AD
:1026D000004F08D0322000EBC900B0FBF1F000F051
:1026E0000700044308E0322000EB09106421B0FB2E
:1026F000F1F000F00F0004432C8106B0BDE8F08734
:102700004FF41651016000218180C18001810C21AC
:10271000418100218181704710B502460020108A56
:102720004FF2FF0318400B884C8823438C882343C7
:10273000CC8823431843108210BD002101804180C2
:102740008180C180704721B1828942F40052828128
:1027500004E082894DF6FF731A4082817047F0B51C
:1027600003460024002600250020A1F510676A3FDB
:1027700000D100BF1846C1F3421401F01F06012723
:1027800007FA06F5012C01D10C3004E0022C01D12E
:10279000103000E014301AB107682F43076002E0E0
:1027A0000768AF430760F0BD1AB1838A0B43838289
:1027B00002E0838A8B4383827047028A4FF6F0736C
:1027C0001A400282028A0A430282704782894FF2CB
:1027D000FF731A40828182890A438281704721B146
:1027E000828942F00202828104E082894FF6FD7301
:1027F0001A4082817047028A4FF6DF731A400282C4
:10280000028A0A430282704721B1028A42F480425E
:10281000028204E0028A4BF6FF731A40028270477C
:10282000C1F308028280704701468888C0F308001F
:102830007047818941F0010181817047028BD2B2DA
:102840000283028B42EA012202837047028B02F468
:102850007F420283028B0A430283704721B1828A3E
:1028600042F02002828204E0828A4FF6DF731A402F
:102870008282704721B1828A42F01002828204E093
:10288000828A4FF6EF731A408282704721B1828AA2
:1028900042F00802828204E0828A4FF6F7731A40FF
:1028A0008282704721B1828942F40042828103E032
:1028B0008289C2F30E028281704721B1828A42F47A
:1028C0000062828204E0828A4FF2FF731A408282A1
:1028D0007047828A4FF6FB731A408282828A0A43CB
:1028E0008282704721B1828A42F00202828204E031
:1028F000828A4FF6FD731A4082827047024600209A
:10290000B1F5007F00D100BF13880B4201D0012038
:1029100000E00020704701F40072B2F5007F00D1A2
:1029200000BFCA430280704770B5024600240023EE
:1029300000250020A1F510666A3E00D100BFC1F35A
:10294000421501F01F03012606FA03F3012D02D1FF
:102950009689334006E0022D02D1168A334001E009
:10296000968A33400C12012606FA04F41688344085
:1029700013B10CB1012000E0002070BD10B50022A1
:102980000023A1F510646A3C00D100BF0A120124A3
:102990009440A3B2DC43048010BD00000038014025
:1029A0000044004000480040004C004000500040FF
:1029B00040EA01039B0703D009E008C9121F08C0C1
:1029C000042AFAD203E011F8013B00F8013B521E41
:1029D000F9D27047D2B201E000F8012B491EFBD2B8
:1029E00070470022F6E710B513460A46044619461A
:1029F000FFF7F0FF204610BD30B505462A460B46CE
:102A000012F8010B13F8014B08B1A042F8D01CB129
:102A1000002802D06D1CF1E7284630BD421C10F89A
:102A2000011B0029FBD1801A7047F0B480EA010233
:102A3000D40F4200B2EB410F02D2024608461146C3
:102A40004A0042D0C30DDDB2C1F3C752AD1A202DEA
:102A500035DAC1F3160141F4000204B15242C5F166
:102A6000200602FA06F12A411044B3EBD05F23D0CE
:102A7000C4B1012DA0EBC35009DCF0BC4FF0004203
:102A800002EAC35200F50000DBB200F018B94000C2
:102A900000F1807000EBC350A0F1807040EAD1706B
:102AA000490009E0490841EAC071A0EBC35000F5B4
:102AB0000000400800EBC350F0BC00F0F7B86142E2
:102AC000012202EB4101001BF6E7F0BC704781F0E8
:102AD0000041AAE780F00040A7E780EA010210B5B4
:102AE00002F00043400026D04A0023D04FEA106194
:102AF00001EB1261C0F35600C2F3560240F400002D
:102B000042F40002A0FB0220A1F17F014FEA004045
:102B1000140401D000F1010050EA124001D4400039
:102B2000491EC2B20C0604EBD010401C4008802A9B
:102B300002D003E0002010BD20F00100002900DADF
:102B40000020184310BD30B480EA010202F00045B5
:102B500030F0004221F0004015D0A0B1C0F3C753BF
:102B6000C2F3C754C2F31601C0F31600E41A41F4CD
:102B7000000140F400027D34914201D3641C00E066
:102B80004900002C02DA30BC002070474FF40000EE
:102B90000023914201D3891A034340084FEA4101BF
:102BA000F7D151B1914202D14FF0004105E002D27C
:102BB0004FF0010101E06FF0010103EBC450284424
:102BC00030BC00F073B896230022114600F077B8AD
:102BD00020F00040C10DC0F3160040F400007F2932
:102BE00001DA00207047962903DCC1F19601C84044
:102BF000704796398840704700F0004230F000403E
:102C00000AD0C10D01F56071C0F3160042EA01510E
:102C1000C20840071143704700200146704730B595
:102C20000B46014600202022012409E021FA02F58A
:102C30009D4205D303FA02F5491B04FA02F5284424
:102C4000151EA2F10102F1DC30BD2DE9F05F054651
:102C5000002092469B4688460646814640241BE05B
:102C6000284641464746224600F02BFA53465A462C
:102C7000C01A914110D311461846224600F012FAAC
:102C80002D1A67EB01084F4622460120002100F073
:102C900009FA17EB00094E41201EA4F10104DFDC04
:102CA000484631462A464346BDE8F09F0029A8BF62
:102CB0007047401C490008BF20F00100704710B465
:102CC000B0FA80FC00FA0CF050EA010404BF10BC1A
:102CD000704749B1CCF1200421FA04F411FA0CF147
:102CE00018BF012121430843A3EB0C01CB1D0106B2
:102CF000000A002BBEBF002010BC704700EBC35081
:102D000010440029A4BF10BC7047401C490008BFF4
:102D100020F0010010BC70472DE9FE4F804681EA8B
:102D20000300C00F0C46009021F0004123F0004545
:102D3000B8EB0200A94105D24046214690461C4608
:102D40000B46024623F00040104304D14046214682
:102D500003B0BDE8F08F270DC7F30A00C3F30A5193
:102D60000290401A0190402866DAC3F3130040F441
:102D7000801B0098924620B10023D2EB030A63EB3C
:102D80000B0B01985946C0F14002504600F08AF9F9
:102D900006460D4650465946019A00F0A2F910EB3E
:102DA00008006141002487EA115284EAE7731A435C
:102DB0003BD0009A3AB3019A012A4FEA075210DC3D
:102DC000001B61EB02014FF0004202EA0752CDE91D
:102DD0000042001C41F5801132462B4600F0A0F95C
:102DE000B6E7001B61EB0201001C41F580130018DF
:102DF0005B412018A2F5001747EB030140EAD570AC
:102E0000B6196D4111E06D084FEA360645EAC07506
:102E10004FEA0752001B61EB0201001C41F58011D3
:102E200049084FEA30000019514132462B4603B0A1
:102E3000BDE8F04F00F067B9009801224000002380
:102E4000D0EB020263EBE073009821464FEAE07496
:102E5000B8EB000061EB0401E9E783F000435BE7B6
:102E600081F0004158E72DE9FE4F81EA030404F0A8
:102E7000004421F0004100944FF0000B23F0004388
:102E800050EA010402D052EA030404D100200146B2
:102E900003B0BDE8F08FC3F30A54C1F30A552C44C4
:102EA000A4F2F3340194A0FB0254C1F3130141F4E2
:102EB0008011C3F3130343F4801301FB024400FBAE
:102EC000034E840A970A44EA815447EA8357A4FBD5
:102ED000076802958D0A05FB07854FEA932C04FBD2
:102EE0000C542705029D4FEA065847EA1637B5EB02
:102EF00008056EEB070C870E920E47EA811742EA2F
:102F00008312A7FB0201B6EB0B0164EB00042B0D4F
:102F100043EA0C335E1844EB1C50DA465146E7FB9B
:102F20000201C5F313044FEA0B3343EA14534FEA8B
:102F30000432019C43EA0603A4F10C040294009CB1
:102F4000CDE900B400F0ECF8A2E72DE9F04D81EAFC
:102F5000030404F0004B21F0004514464FF0000A32
:102F600023F0004150EA050220D054EA01021DD0AE
:102F7000C5F30A570246C5F31303C1F31300C1F3A7
:102F80000A5640F4801543F48013A7EB0608101B83
:102F9000D64608F2FD3873EB050002D308F10108AC
:102FA00001E092185B41B8F1000F03DA00200146FE
:102FB000BDE8F08D00204FF48011064684460EE0F7
:102FC000171B73EB050705D3121B63EB05030643C1
:102FD0004CEA010C49084FEA300092185B4150EA74
:102FE0000107EDD152EA030012D082EA040083EA1D
:102FF0000501084303D100224FF0004308E0101BF5
:10300000AB4102D20122002302E06FF00102531013
:103010001AEB06004CEB085110EB0A0041EB0B01D8
:10302000BDE8F04D00F06FB8C1F30A52C1F31301CF
:1030300040F2FF3341F480119A4202DA0020014647
:10304000704740F233439A42A2F2334202DC5242CA
:1030500000F037B800F026B830B5002904DB4FF097
:103060000044404264EB0101002B04DB4FF00044BC
:10307000524264EB0303994208BF904230BD000006
:10308000064C074D06E0E06840F0010394E80700B5
:1030900098471034AC42F6D3FDF72CF85C43000897
:1030A0007C430008202A04DB203A00FA02F10020C9
:1030B00070479140C2F1200320FA03F31943904076
:1030C0007047202A04DB203A21FA02F000217047E1
:1030D00021FA02F3D040C2F1200291400843194680
:1030E0007047202A06DBCB17203A41FA02F043EA68
:1030F000E07306E041FA02F3D040C2F120029140B1
:1031000008431946704710B5002B08DA401C41F1FE
:10311000000192185B411A4301D120F0010010BD5B
:103120002DE9F04D92469B4611B1B1FA81F202E0D1
:10313000B0FA80F220329046FFF7B4FF04460F4603
:1031400040EA0A0041EA0B0153465A46084303D1BC
:1031500020463946BDE8F08D114653EA010015D0EE
:10316000C8F140025046FFF7ACFF05460E465046F8
:1031700059464246FFF796FF084301D0012000E080
:103180000020054346EAE0762C4337430A984FEA8D
:103190004453A0EB08004FEAD4240A304FF0000259
:1031A00044EA47544FEAD72502D500200146D1E72B
:1031B000010510196941DDE9084500196941BDE8BB
:1031C000F04DA0E770B501EB020410F8015B15F0BB
:1031D000070301D110F8013B2A1106D110F8012B89
:1031E00003E010F8016B01F8016B5B1EF9D12B07AE
:1031F00005D40023521E0FD401F8013BFAE710F862
:10320000013B02F10202A1EB030303E013F8015BAF
:1032100001F8015B521EF9D5A142D6D3002070BD42
:103220000FB4054B10B503A9044A029800F0DAF870
:1032300010BC5DF814FB000071180008B0010020FC
:103240000FB4084B10B504A902AA039800F0CAF8FD
:10325000044602A9002000F068FC204610BC5DF87E
:1032600014FB00002B3B000802E008C8121F08C135
:10327000002AFAD170477047002001E001C1121FF7
:10328000002AFBD1704700002DE9FF5FDDE9022035
:10329000010DDDF838B0024310D10F9801244CA283
:1032A000012808D0002100980F9BC0E90021C0E947
:1032B0000243BDE8FF9F6FEA0B01F4E7A1F2FF3183
:1032C00044F6105041430D140F9801280ED0A5EB81
:1032D0000B00401C4FF000043E4EDFF8FC90B0F1B4
:1032E000000AA04605DACAF1000717E0CBF100009A
:1032F000F0E7074612E0F80707D02246334640467B
:103300004946FFF7B0FD80468946224633461046BF
:103310001946FFF7A8FD04460E467F10002FEAD19C
:10332000DDE90201BAF1000F42464B4602DAFFF72F
:103330009AFD01E0FFF709FE04460E460022274BE6
:10334000FFF78AFE03D84FF0FF30014607E0002266
:10335000234B20463146FFF7DFFCFFF765FE1024C4
:1033600009E0002C0ADB0A220023FFF76EFC019B18
:1033700030321A55641E50EA0102F2D1641C019ADF
:10338000C4F1110314440F9A012A09D00122084301
:1033900001D15B450FDD4FF0000205F101050DE0A5
:1033A000084303D1A3EB0B056D1E09E000204FF08D
:1033B000110B0F9088E701DA00226D1E002A83D0DE
:1033C00000980F99C0E90231C0E9004571E700009B
:1033D00030000000000024400000F03F0000F043F7
:1033E0000000E03F2DE9FF4F95B09B468946064619
:1033F000002512E2252878D10024761CF94A2746B8
:10340000012105943378203B01FA03F0104202D0E9
:103410000443761CF6E730782A2811D06FF02F038A
:103420003078A0F13002092A16D8059A44F0020437
:1034300002EB820203EB42021044761C0590EFE798
:1034400059F8042B0592002A03DA504244F4005440
:10345000059044F00204761C30782E2816D116F818
:10346000010F44F004042A280DD06FF02F023078A9
:10347000A0F13003092B09D807EB870302EB4303C4
:10348000C718761CF3E759F8047B761C30786C2853
:103490000FD006DC4C2817D068280DD06A2814D12C
:1034A00004E0742810D07A280FD10DE044F4001401
:1034B0000AE044F4801401E044F44014727882423B
:1034C00002D1761C04F58014761C307866280BD067
:1034D00013DC582877D009DC002875D04528F6D0B1
:1034E0004628F4D047281AD19FE118E0632835D048
:1034F000642879D0652812D197E1702873D008DC50
:103500006728F1D069286FD06E280DD06F2806D1BA
:10351000B5E073282CD0752875D0782874D05A4619
:10352000179990476D1C76E1C4F30250022809D028
:1035300003280DD0D9F8001004280DD00D6009F132
:10354000040968E1D9F80010EA17C1E90052F6E76A
:10355000D9F800100D80F2E70D70F0E719F8041BA0
:103560008DF8001000208DF80100EA46012003E0EC
:1035700059F804AB4FF0FF3061074FF0000102D45F
:103580000DE008F101018846B9420FDA8045F8DB09
:103590001AF808100029F4D108E008F10101884662
:1035A0008142FADB1AF808100029F6D105985B462B
:1035B000A0EB080721463846179A00F09EFA2844E7
:1035C00000EB080507E04DE02BE10DE01AF8010BD8
:1035D0005A4617999047B8F10108F7D25B46214641
:1035E0003846179A14E142E00A220092C4F30252CC
:1035F0004FF0000A022A08D059F804CB032A4FEAF8
:10360000EC710AD00DE029E02AE009F1070121F070
:103610000702F2E802C1914609E00FFA8CFC4FEA7A
:10362000EC71042A03D14FFA8CFC4FEAEC710029AB
:1036300007DA0A460021DCF1000C61EB02012D22C1
:1036400002E0220504D52B228DF80420012203E09C
:10365000E20701D02022F7E7904653E00A2102E07A
:1036600010220DE010214FF0000A00910BE0102213
:103670004FF0000A44F004040827009203E00822F7
:103680004FF0000A0092C4F30252022A05D059F802
:1036900004CB0021032A08D009E009F1070121F039
:1036A0000702F2E802C1914605E01FFA8CFC042AE9
:1036B00001D10CF0FF0C4FF00008220722D5702832
:1036C00027D0009B83F0100353EA0A0309D15CEA78
:1036D000010206D030228DF804208DF80500022268
:1036E0009046009B83F0080353EA0A030AD15CEA80
:1036F000010201D1620705D530228DF804204FF078
:1037000001087F1E582809D037A003900EA8029008
:1037100013E040228DF804200122E1E737A0F4E70E
:1037200053466046009AFFF790FA84460398825CFD
:103730000298A0F10100029002705CEA0100EFD152
:10374000029806A9A1EB000000F1200A600702D54B
:1037500024F4803400E00127574502DDA7EB0A007E
:1037600000E0002000EB0A01009005984144A0EB26
:1037700001000590E00306D45B462146179A0598A0
:1037800000F0BBF90544002706E001A85A46C05DD9
:10379000179990476D1C7F1C4745F6DBE0030CD55D
:1037A0005B462146179A059800F0A7F9054404E006
:1037B00030205A46179990476D1C0099481E00907A
:1037C0000029F5DC08E0029802995A460078491C65
:1037D0000291179990476D1CBAF10001AAF1010AF4
:1037E000F1DC6BE1092801003031323334353637F2
:1037F000383961626364656600000000303132333D
:1038000034353637383941424344454600000000DC
:1038100000F060F9054406F10106307800287FF4D5
:10382000E9AD19B02846BDE8F08F620700D406273D
:1038300009F1070222F0070CFCE80223E14603F03D
:1038400000485FEA080C02D00FF27C2C0DE05FEA22
:10385000045C02D50FF2742C07E05FEAC47C02D04E
:103860000FF26C2C01E0AFF2700C4FF0FF3823F038
:103870000043CDF850C065280CD006DC452809D09F
:1038800046281DD047283ED13EE0662818D067283C
:1038900039D139E00021112F01DB112000E0781C23
:1038A000CDE9000106A90EA8FFF7EEFCDDE90F0146
:1038B0000E9A03910021009207F1010A04914EE053
:1038C0004FF000400097CDE9011006A90EA8FFF7C0
:1038D000DBFCDDE90F0203920E9B11990022DDF85B
:1038E0000CA00093049219B907F1010100EB010A41
:1038F000B7EB0A0004D4C0F1FF3007F1010A0490CD
:10390000AAEB0700019046E0012F00DA0127002111
:10391000112F01DD112000E03846CDE9000106A994
:103920000EA8FFF7B1FCDDE90F010E9A039100210B
:1039300004910092BA4621070CD40399514500DA4C
:103940008A46BAF1010F05DD009AAAF10101515C26
:10395000302908D0B84202DA10F1040F06DA01214A
:10396000CDE9011017E0AAF10101E9E7002805DC23
:10397000049901440491AAEB000102E0411C514565
:1039800000DD8A460499A0EB010000F101000190DE
:103990004FF000400290200704D40198504501DB0D
:1039A000CDF8048000208DF84F0002980DF14F07EC
:1039B000B0F1004F25D02B200E9002984FF0020856
:1039C00000280CDA404202902D200E9007E00A21D8
:1039D0000298FFF724F93031029007F8011DB8F181
:1039E0000001A8F10108F2DC02980028EFD1791E4D
:1039F0000E980870307800F0200040F0450007F87D
:103A0000020D12A8A0EB070000F107081498007837
:103A100000B1012000EB0A01019801EBE07105986B
:103A20004144A0EB0100A0F101000590E00306D4A1
:103A30005B462146179A059800F05FF805441498F4
:103A4000007820B15A461799904705F10105E00327
:103A500023D55B462146179A059800F04EF8054499
:103A60001BE00498002807DBDDE90301884203DD41
:103A70000098405C179901E0179930205A4690470A
:103A800004986D1C401C04900198401E019004D1C4
:103A90002E205A46179990476D1CBAF10001AAF1E1
:103AA000010ADEDC05E017F8010B5A46179990472A
:103AB0006D1CB8F10001A8F10108F4DC5B46214659
:103AC000179A0598A4E600002D0000002B000000C6
:103AD000200000002DE9F041044600251E4617464F
:103AE000880405D406E039462020B04705F10105D9
:103AF000641EF8D52846BDE8F0812DE9F041044662
:103B000000251E469046C80301D5302700E0202737
:103B1000880405D506E041463846B04705F1010561
:103B2000641EF8D52846BDE8F0810A68531C0B6076
:103B300010707047AA0F0201050200A001040000E6
:103B40000000C8000000000000000000002F00007E
:103B500000000700070000147F147F1400242A7F50
:103B60002A120062640813230036495522500000CF
:103B70000503000000001C224100000041221C003F
:103B80000014083E08140008083E0808000000A0C1
:103B900060000008080808080000606000000020BD
:103BA00010080402003E5149453E0000427F40009B
:103BB000004261514946002141454B310018141221
:103BC0007F10002745454539003C4A4949300001EE
:103BD0007109050300364949493600064949291E3D
:103BE000000036360000000056360000000814229F
:103BF000410000141414141400004122140800029F
:103C00000151090600324959513E007C1211127CC3
:103C1000007F49494936003E41414122007F4141F0
:103C2000221C007F49494941007F09090901003EE2
:103C30004149497A007F0808087F0000417F410020
:103C4000002040413F01007F08142241007F404096
:103C50004040007F020C027F007F0408107F003E7E
:103C60004141413E007F09090906003E4151215E64
:103C7000007F091929460046494949310001017F61
:103C80000101003F4040403F001F2040201F003FF7
:103C90004038403F006314081463000708700807A9
:103CA00000615149454300007F41410000552A55BC
:103CB0002A55000041417F00000402010204004037
:103CC0004040404000000102040000205454547859
:103CD000007F484444380038444444200038444479
:103CE000487F00385454541800087E090102001817
:103CF000A4A4A47C007F080404780000447D400054
:103D0000004080847D00007F102844000000417F37
:103D10004000007C04180478007C08040478003813
:103D20004444443800FC242424180018242418FC9B
:103D3000007C0804040800485454542000043F4404
:103D40004020003C4040207C001C2040201C003CC7
:103D50004030403C004428102844001CA0A0A07C17
:103D6000004464544C44141414141414000000004F
:103D7000000000000000000000000000000000F84B
:103D800000000000000000333000000000100C06AE
:103D9000100C0600000000000000000040C0784049
:103DA000C0784000043F04043F040400007088FC15
:103DB00008300000001820FF211E0000F008F0006D
:103DC000E018000000211C031E211E0000F00888DE
:103DD000700000001E2123241927211010160E0048
:103DE000000000000000000000000000000000E0F3
:103DF0001804020000000007182040000002041808
:103E0000E00000000040201807000000404080F063
:103E1000804040000202010F01020200000000F099
:103E2000000000000101011F01010100000000006D
:103E30000000000080B070000000000000000000E2
:103E4000000000000001010101010101000000006B
:103E50000000000000303000000000000000000002
:103E600080601804006018060100000000E01008DF
:103E70000810E000000F102020100F00001010F8B4
:103E8000000000000020203F2020000000700808F3
:103E90000888700000302824222130000030088873
:103EA000884830000018202020110E000000C0209B
:103EB00010F8000000070424243F240000F80888BC
:103EC000880808000019212020110E0000E0108849
:103ED00088180000000F112020110E00003808087B
:103EE000C83808000000003F00000000007088088B
:103EF00008887000001C222121221C0000E010080C
:103F00000810E0000000312222110F00000000C064
:103F1000C000000000000030300000000000008001
:103F200000000000000080600000000000008040F1
:103F3000201008000001020408102000404040400A
:103F4000404040000404040404040400000810205D
:103F500040800000002010080402010000704808A2
:103F60000808F0000000003036010000C030C8280A
:103F7000E810E0000718272423140B000000C038C5
:103F8000E0000000203C23020227382008F888883F
:103F900088700000203F202020110E00C03008084B
:103FA00008083800071820202010080008F8080822
:103FB0000810E000203F202020100F0008F888881B
:103FC000E8081000203F20202320180008F88888E7
:103FD000E8081000203F200003000000C03008085F
:103FE0000838000007182020221E020008F80800E8
:103FF0000008F808203F210101213F20000808F8AF
:10400000080800000020203F2020000000000808D1
:10401000F8080800C08080807F00000008F888C091
:1040200028180800203F20012638200008F8080042
:1040300000000000203F20202020300008F8F80079
:10404000F8F80800203F003F003F200008F830C08B
:104050000008F808203F200007183F00E01008087B
:104060000810E0000F10202020100F0008F80808AA
:104070000808F000203F210101010000E0100808BD
:104080000810E0000F18242438504F0008F88888E2
:1040900088887000203F2000030C302000708808C2
:1040A000080838000038202121221C00180808F8D0
:1040B000080818000000203F2000000008F8080051
:1040C0000008F808001F202020201F000878880022
:1040D00000C83808000007380E010000F80800F892
:1040E0000008F800033C0700073C0300081868803C
:1040F0008068180820302C03032C30200838C800B2
:10410000C83808000000203F200000001008080800
:10411000C83808002038262120201800000000FEA2
:10412000020202000000007F40404000000C30C04E
:1041300000000000000000010638C000000202027A
:10414000FE000000004040407F000000000004022C
:104150000202040000000000000000000000000057
:104160000000000080808080808080800002020447
:10417000000000000000000000000000000080803F
:10418000808000000019242222223F2008F80080AD
:1041900080000000003F112020110E000000008070
:1041A00080800000000E11202020110000000080FF
:1041B0008088F800000E112020103F200000808031
:1041C00080800000001F222222221300008080F045
:1041D000888888180020203F202000000000808070
:1041E00080808000006B94949493600008F80080B5
:1041F00080800000203F210000203F200080989810
:10420000000000000020203F20200000000000806F
:104210009898000000C08080807F000008F80000AF
:1042200080808000203F24022D302000000808F804
:10423000000000000020203F2020000080808080BF
:1042400080808000203F20003F20003F8080008051
:1042500080800000203F210000203F20000080805F
:1042600080800000001F202020201F008080008010
:104270008000000080FFA12020110E0000000080BF
:1042800080808000000E112020A0FF8080808000B0
:104290008080800020203F212000010000008080DD
:1042A000808080000033242424241900008080E0D2
:1042B000808000000000001F20200000808000009F
:1042C00000808000001F202020103F208080800080
:1042D0000080808000010E30080601008080008090
:1042E000008080800F300C030C300F0000808000B5
:1042F000808080000020312E0E31200080808000E0
:104300000080808080818E7018060100008080808F
:10431000808080000021302C22213000000000002D
:10432000807C020200000000003F404000000000CE
:10433000FF00000000000000FF0000000002027CFF
:10434000800000000040403F000000000006010126
:104350000202040400000000000000007C4300088A
:1043600000000020B4010000C43100083C440008F3
:10437000B401002004090000783200081184A24A28
:104380000400181301020304060708098080EE8860
:104390008888E88F088878484E40C0167F242424F7
:1043A0007F0008168140300F304180051701E21C64
:1043B000E037804020100C030E10030C304080408A
:1043C0002C101090010009121010FF10101116107F
:1043D00018082060203F101010400D10102040F8E9
:1043E000601D828282FE0449060911A01A80B9511B
:1043F0000217FF1F181610D0B897840B1192947FE4
:1044000011080D1120108C83804146281028444348
:10441000C0114FFE0222428272050213FE2FFF10CE
:104420000806010E05041C4E807F2D0102030404C2
:0C443000600906070809020406080000E5
:0400000508001DAD25
:00000001FF
